:100000000C946C030C9494030C9494030C9494033C
:100010000C9494030C9494030C9494030C94940304
:100020000C9494030C9494030C940C090C947B0989
:100030000C9494030C9494030C9494030C949403E4
:100040000C9494030C9494030C9494030C949403D4
:100050000C9494030C9494030C9494030C94AD0BA3
:100060000C9494030C9494030C9494030C949403B4
:100070000C9494030C9494030C9494030C949403A4
:100080000C94F70B0C9494030C9494030C94940329
:100090000C9494030C9494030C9494030C94940384
:1000A0000C9494030C9494030C94940300000000AB
:1000B000003E5B4F5B3E3E6B4F6B3E1C3E7C3E1CEE
:1000C000183C7E3C181C577D571C1C5E7F5E1C0034
:1000D000183C1800FFE7C3E7FF0018241800FFE7EB
:1000E000DBE7FF30483A060E2629792926407F05AE
:1000F0000507407F05253F5A3CE73C5A7F3E1C1CC4
:1001000008081C1C3E7F14227F22145F5F005F5F83
:1001100006097F017F006689956A6060606060946F
:10012000A2FFA29408047E040810207E2010080874
:100130002A1C08081C2A08081E101010100C1E0C7F
:100140001E0C30383E3830060E3E0E060000000011
:100150000000005F00000007000700147F147F14F8
:10016000242A7F2A1223130864623649562050003D
:1001700008070300001C2241000041221C002A1C29
:100180007F1C2A08083E0808008070300008080814
:100190000808000060600020100804023E51494534
:1001A0003E00427F400072494949462141494D3352
:1001B0001814127F1027454545393C4A49493141B9
:1001C000211109073649494936464949291E000087
:1001D00014000000403400000008142241141414DC
:1001E0001414004122140802015909063E415D59C8
:1001F0004E7C1211127C7F494949363E41414122D1
:100200007F4141413E7F494949417F090909013EFA
:10021000414151737F0808087F00417F4100204021
:10022000413F017F081422417F404040407F021C33
:10023000027F7F0408107F3E4141413E7F0909094A
:10024000063E4151215E7F09192946264949493216
:1002500003017F01033F4040403F1F2040201F3FDC
:100260004038403F63140814630304780403615961
:10027000494D43007F4141410204081020004141A3
:10028000417F04020102044040404040000307084F
:100290000020545478407F2844443838444444284B
:1002A000384444287F385454541800087E090218F2
:1002B000A4A49C787F0804047800447D400020407A
:1002C000403D007F1028440000417F40007C0478BE
:1002D00004787C080404783844444438FC18242406
:1002E0001818242418FC7C08040408485454542486
:1002F00004043F44243C4040207C1C2040201C3C03
:100300004030403C44281028444C9090907C4464F9
:10031000544C44000836410000007700000041368C
:10032000080002010204023C2623263C1EA1A16112
:10033000123A4040207A3854545559215555794144
:100340002154547841215554784020545579400C1B
:100350001E527212395555555939545454593955FC
:100360005454580000457C410002457D420001453F
:100370007C40F0292429F0F0282528F07C545545AC
:10038000002054547C547C0A097F4932494949323F
:100390003248484832324A4848303A4141217A3A54
:1003A00042402078009DA0A07D39444444393D401E
:1003B00040403D3C24FF2424487E4943662B2FFCCB
:1003C0002F2BFF0929F620C0887E09032054547979
:1003D000410000447D413048484A32384040227A4A
:1003E000007A0A0A727D0D19317D2629292F2826C7
:1003F0002929292630484D402038080808080808CF
:100400000808382F10C8ACBA2F102834FA00007B27
:10041000000008142A142222142A1408950022002D
:1004200095AA005500AAAA55AA55AA000000FF00E7
:10043000101010FF00141414FF001010FF00FF1024
:1004400010F010F0141414FC001414F700FF000056
:10045000FF00FF1414F404FC141417101F10101FD5
:10046000101F1414141F00101010F0000000001FC3
:10047000101010101F10101010F010000000FF10CE
:100480001010101010101010FF10000000FF1400CA
:1004900000FF00FF00001F10170000FC04F41414FC
:1004A0001710171414F404F40000FF00F7141414C8
:1004B00014141414F700F7141414171410101F1048
:1004C0001F141414F4141010F010F000001F101F6B
:1004D0000000001F14000000FC140000F010F010D9
:1004E00010FF10FF141414FF141010101F00000050
:1004F00000F010FFFFFFFFFFF0F0F0F0F0FFFFFF54
:100500000000000000FFFF0F0F0F0F0F38444438AA
:10051000447C2A2A3E147E02020606027E027E02E5
:1005200063554941633844443C04407E201E200604
:10053000027E020299A5E7A5991C2A492A1C4C7241
:1005400001724C304A4D4D303048784830BC625AC8
:10055000463D3E494949007E0101017E2A2A2A2A58
:100560002A44445F444440514A444040444A514034
:100570000000FF0103E080FF000008086B6B0836F5
:1005800012362436060F090F060000181800000066
:100590001010003040FF0101001F01011E00191D55
:1005A0001712003C3C3C3C0000000000F0F89C8E20
:1005B0008783878E9CF8F00000FEFF03030303038C
:1005C000070EFCF80000FEFF0303030303070EFC05
:1005D000F80000FFFF00000000000000FFFF000027
:1005E000FEFF8383838383C7EE7C380000F8FC0E14
:1005F00007030303070EFCF800003F7FE0C0808084
:10060000C0E07F3FFFFF01010101010101FFFF0089
:1006100000FFFF0C0C0C0C1C3E77E3C100007FFFB9
:10062000C0C0C0C0C0E0703F1F00001F3F70E0C0EE
:10063000C0C0E0703F1F00007FFFC1C1C1C1C1E366
:10064000773E1C00001F3F70E0C0C0C0E0703F1F3D
:10065000000000000001FFFF01000000D5F08D1434
:10066000A1C881CFD9F1AF2000080B00020202001F
:100670000009040000010202000005240010010529
:100680002401010104240206052406000107058156
:100690000310004009040100020A000000070502DF
:1006A0000240000007058302400000040309041211
:1006B000010002EF020140412336800001010203E4
:1006C0000141726475696E6F204C4C430041726445
:1006D00075626F7900008B0C11241FBECFEFDAE03A
:1006E000DEBFCDBF11E0A0E0B1E0EAE8F1E202C078
:1006F00005900D92A034B107D9F726E0A0E4B1E04F
:1007000001C01D92A039B207E1F713E0CCE6D3E0B7
:1007100004C02197FE010E94BD10CB36D107C9F756
:100720000E94B80C0C94C3100C94000080916D01D1
:100730000895ECE2F2E0A0E0B8E000800EBC811188
:10074000012C1197A0FDFDCF0192B9F70DB40895CA
:100750005E9881E00E9499035E9A0895FC01809161
:100760002B02882311F13FB7F89482E08093E900CF
:100770002091F200822F90E01816190614F481E0FF
:1007800090E0882339F0289844E640932A0240916B
:10079000F1004083222339F02091F200211103C09F
:1007A0002BE62093E8003FBF08958FEF9FEF089559
:1007B0002FB7F89483E08093E9009091E800892FA7
:1007C000807295FF04C09091F20080E4891B2FBFD6
:1007D00008958091220281110DC082E080931E0253
:1007E00084E080931F02109221021092200281E087
:1007F000809322028EE192E00895CF93DF931F92BF
:10080000CDB7DEB76983DC01ED91FC910280F38105
:10081000E02D41E050E0BE016F5F7F4F09950F90E2
:10082000DF91CF91089583E08093E9008091F200F9
:10083000882319F08AE38093E80008950E94D80382
:1008400090E00895CF93DF931F92CDB7DEB7FC0100
:100850008485958597FD08C02FEF3FEF3587248766
:100860000F90DF91CF910895CE0101960E94AE03C3
:10087000019719F4898190E0F3CF8FEF9FEFF0CFCC
:100880000F931F93CF93DF931F92CDB7DEB78C01E9
:10089000FC018485958597FF0BC0CE0101960E94CF
:1008A000AE03019771F4898190E0F8019587848700
:1008B000F801848595850F90DF91CF911F910F915D
:1008C00008958FEF9FEFF1CFFC018485958597FD0B
:1008D0000BC09FB7F89482E08093E9008091F2000A
:1008E0009FBF90E0019608959FB7F89482E08093AF
:1008F000E9008091F2009FBF90E0089540911802B6
:100900005091190220911602309117024217530795
:10091000B4F49091E8009570E1F39091E80092FDB5
:1009200019C08093F10080911802909119020196EC
:100930008F739927892B19F48EEF8093E8008091AB
:10094000180290911902019690931902809318024F
:1009500081E0089580E00895DF92EF92FF920F9377
:100960001F93CF93DF93D82E8A01EB017B01E40E16
:10097000F51ECE15DF0559F0D7FE12C0FE01849199
:100980000E947E0421968111F4CF0FEF1FEFC80162
:10099000DF91CF911F910F91FF90EF90DF9008951D
:1009A0008881EECF0F931F93CF93DF931F92CDB724
:1009B000DEB782E0898342E450E069E676E080E8D1
:1009C0000E94AC040E94E903DC0112960D911C9177
:1009D0000115110589F0D801ED91FC910280F38198
:1009E000E02DBE016F5F7F4FC801099597FD04C0E0
:1009F000F80100851185ECCF89810F90DF91CF91AF
:100A00001F910F910895615030F02091F100FC0189
:100A100020830196F8CF289884E680932A020895CF
:100A20008EBD00000DB407FEFDCF8EB50895AF92C8
:100A3000BF92CF92DF92EF92FF920F931F93CF93CB
:100A4000DF936C017B018B01040F151FEB015E012D
:100A5000AE18BF08C017D10759F06991D601ED91C2
:100A6000FC910190F081E02DC6010995892B79F761
:100A7000C501DF91CF911F910F91FF90EF90DF9013
:100A8000CF90BF90AF9008950DB407FEFDCF8EB507
:100A9000599A08950DB407FEFDCF8EB51EBC08957A
:100AA0003FB7F8948091690190916A01A0916B0120
:100AB000B0916C0126B5A89B05C02F3F19F0019697
:100AC000A11DB11D3FBFBA2FA92F982F8827BC01A8
:100AD000CD01620F711D811D911D42E0660F771FD0
:100AE000881F991F4A95D1F708958F929F92AF92D0
:100AF000BF92CF92DF92EF92FF926B017C010E9436
:100B000050054B015C01C114D104E104F104B9F0BA
:100B10000E945005681979098A099B09683E73404B
:100B20008105910580F381E0C81AD108E108F10838
:100B300028EE820E23E0921EA11CB11CE4CFFF9090
:100B4000EF90DF90CF90BF90AF909F908F900895DF
:100B50008F929F92AF92BF92CF92DF92EF92FF92CD
:100B60000F931F93CF93DF936C017B018A018091D8
:100B70000B01882309F45CC080912B02882309F4BF
:100B800057C080911D0280FF05C08091E000826007
:100B90008093E000E801B12C8AEFA82E93E0892E23
:100BA0002AE3922E209711F4BB20D9F10E94D8039A
:100BB00081110AC0AA94AA20D9F161E070E080E016
:100BC00090E00E947505EECF8C171D0611F00CF019
:100BD0008C2F9FB7F8948092E9002091E80025FDC2
:100BE00002C09FBFDFCF282F30E0C21BD30BF7011D
:100BF000815020F041914093F100FACFE20EF31EB4
:100C0000BB2021F09092E800B12CEBCF8091E8005E
:100C100085FDE7CF9092E800BB24B394209709F3B9
:100C2000F3CF5D9884E680931C02101611063CF009
:100C300081E090E0F6019383828310E000E0C80138
:100C4000DF91CF911F910F91FF90EF90DF90CF90A8
:100C5000BF90AF909F908F90089520915D01E0919B
:100C60005B01F0915C01CF01029690935C0180934F
:100C70005B01222319F085919491089580819181DF
:100C80000895CF92DF92EF92FF92CF93DF930E946D
:100C90002D06811520E8920791F4809171008D7FD7
:100CA00080937100109291004698479810925A01D3
:100CB000DF91CF91FF90EF90DF90CF90089521E0EA
:100CC00020935A01813020E8920751F48091580115
:100CD0009091590190935C0180935B010E942D06D5
:100CE00097FD05C020915701222309F454C020919B
:100CF0005601211150C021E020935E01EC01DF7705
:100D0000209709F04BC081E080935F0146983FE94E
:100D1000C32E3FE0D32EE12CF12CCAEFD0E0E091BE
:100D20008A06F0918B060995811103C081E08093BA
:100D30005F0180915E01882329F080915F01882303
:100D400009F43FC047980E942D060097F1F19C01DD
:100D5000DE010E94AE10DC01CB0129E0B595A7951C
:100D6000979587952A95D1F7109290002AE02093C5
:100D70009100D0929900C092980080936001909366
:100D80006101A0936201B093630180917100826060
:100D9000809371008DCF10925E01B0CF9E0150E024
:100DA00040E060E472E48FE090E00E946D10690121
:100DB0007A0181E0C81AD108E108F10810925F01B8
:100DC000AECF4699BFCF479ABECF8FEF9FEFDC01E2
:100DD000CBCF9C01E1E7F0E090819D7F9083109262
:100DE0005D01ECE7F6E0F0935C01E0935B01F093CA
:100DF0005901E0935801318320837383628380E03B
:100E000090E8958384830C9441062D9A0895BC0143
:100E100090E080E00C9475058FB18095807F669B93
:100E200088601C9B8460089520E191E061FD94E05E
:100E300060FD990F62FD9295687F269FD001112475
:100E4000A80FA45DBD4F8C9140FF03C0892B8C93EC
:100E5000089590958923FBCF8F929F92AF92BF9276
:100E6000CF92DF92EF92FF920F931F93CF93DF9376
:100E70006D3089F0C0907001D09071016A30D1F46A
:100E800010926F0110926E0188E0C80ED11CD092B2
:100E90007101C092700181E090E0DF91CF911F91CC
:100EA0000F91FF90EF90DF90CF90BF90AF909F9009
:100EB0008F90089500916E0110916F01E5E06E9F93
:100EC000E0011124C455DF4F5801F12CF5E0E12C6D
:100ED000FF1629F0CE010196FE01E490EC01912C61
:100EE000812CF0E8AF16B10458F4B601680D791DF5
:100EF0006034710528F44E2D4170C5010E9414071D
:100F0000E6948FEF881A980AE8E08E16910449F764
:100F1000F394FFEFAF1ABF0A86E0F812D7CF0A5F4B
:100F20001F4F10936F0100936E01B5CFCF93C82F61
:100F30000E940C07982F9C2381E09C1380E0CF91A6
:100F4000089580E00C9499035E980E94A1075E9A30
:100F50000895ECE2F2E081118FEF002481938193F8
:100F6000819381930394D1F708958F929F92AF92CA
:100F7000BF92CF92DF92EF92FF920F93CF93DF93C6
:100F80005B01EC014C01840E911C6B01C20ED11C63
:100F9000C815D905ECF47501B7FE02C0F12CE12C9F
:100FA000C60121E4C216D10414F080E490E0E816F2
:100FB000F90664F4C038D10528F4402FB701CE01FA
:100FC0000E9414078FEFE81AF80AEACF2196E0CFC3
:100FD000DF91CF910F91FF90EF90DF90CF90BF9076
:100FE000AF909F908F9008950F93CF93DF93609170
:100FF00070017091710100E028E048E080916E017D
:1010000090916F010E94B5070E94A40762E370E00F
:1010100088E592E00E94E90662E370E080E090E0FB
:101020000E94750562E370E086E295E00E94E906A1
:1010300062E370E080E090E00E94750562E370E09A
:1010400084E893E00E94E90662E370E080E090E0CB
:101050000E947505D0E0C0E084E00E9496078823D6
:1010600029F0DF91CF910F910C94A80388E00E94A2
:1010700096078111F6CFCF5FC93278F0D130A1F455
:1010800001E02AE04AE067E370E088E790E00E9430
:10109000B5070E94A407D0E0C0E06AE070E080E0FD
:1010A00090E00E947505D8CF00E02AE04AE067E3AF
:1010B00070E088E790E00E94B5070E94A407CD2F5A
:1010C000D1E0EBCF089590E080E00895CF92DF92D9
:1010D000EF92FF920F93CF93DF9390911402E92F39
:1010E000F0E0DF01A05CBE4F8C93803268F0953158
:1010F00058F49F5F90931402DF91CF910F91FF906E
:10110000EF90DF90CF9008952091700130917101A0
:1011100020343105C4F0ACE2B2E0ED01C058DF4F3D
:1011200088818D9385E0AC3AB807B9F7ACEAB5E0B1
:1011300080E01D928F5F8038E1F728E330E0309344
:10114000710120937001EF5BFE4FC92FCC2329F072
:101150008291813218F0C150F9CFC92FC53121F4E5
:10116000915090931402C4E1D0E0ED2FF0E0E05CE8
:10117000FE4F6081603220F08CE896E00E942C07E0
:1011800062E070E086E295E00E94E906C09070019E
:10119000D0907101E0906E01F0906F0101E028E0C5
:1011A00048E0B601C7010E94B5070E94A40762E3A8
:1011B00070E080E090E00E947505DF5FCD17A8F633
:1011C000309114023C1B3093140220E0D0E0E22F57
:1011D000F0E0E05CFE4FDF01AC0FBD1F11964C91BB
:1011E00040832F5F321798F700E028E048E0B6010F
:1011F000C7010E94B50742E050E061E371E08CE86E
:1012000096E0DF91CF910F91FF90EF90DF90CF901C
:101210000C9417050C9457101F920F920FB60F9253
:1012200011248F939F938091E1009091E100937F2F
:101230009093E10083FF0FC01092E90091E090933A
:10124000EB001092EC0092E39093ED0010922B02D1
:1012500098E09093F00082FF22C093E09093E90021
:101260009091F200992319F09AE39093E8009091FD
:101270001C02992341F090911C02915090931C0202
:10128000911101C05D9A90912A02992341F09091A9
:101290002A02915090932A02911101C0289A84FF4A
:1012A00018C08091E2008E7E81608093E200809180
:1012B000E1008F7E8093E10080911D028E7E80612F
:1012C00080931D029F918F910F900FBE0F901F90E2
:1012D000189580FFF7CF8091E2008E7E8061809329
:1012E000E2008091E1008E7E8093E10080911D02FA
:1012F0008E7E8160E5CF1F920F920FB60F92112460
:10130000CF92DF92EF92FF920F931F932F933F9311
:101310004F935F936F937F938F939F93AF93BF93FD
:10132000EF93FF93CF93DF93CDB7DEB76C97DEBF1C
:10133000CDBF1092E9008091E80083FF25C068E0EE
:10134000CE0145960E94030582EF8093E8008D89C7
:1013500087FF39C09091E80090FFFCCF982F9076DE
:1013600009F034C19E894F89588D2F89F88C9111CD
:1013700031C0803861F580911B028093F10010929A
:10138000F1008EEF8093E8006C960FB6F894DEBF04
:101390000FBECDBFDF91CF91FF91EF91BF91AF9184
:1013A0009F918F917F916F915F914F913F912F917D
:1013B0001F910F91FF90EF90DF90CF900F900FBE95
:1013C0000F901F9018959EEF9093E800C7CF109252
:1013D000F100D5CF913059F48111D3CF413051056F
:1013E00081F680911B028D7F80931B02CACF9330C0
:1013F00049F48111C6CF4130510519F680911B0285
:101400008260F2CF953041F48091E80080FFFCCFFC
:1014100020682093E300B5CF963009F0A9C00B8D6A
:101420001C8D22E01092E90010921902109218020D
:10143000F2122EC010921702109216020E94D204CD
:101440001F8299E09983FA8291E09E8390EA9887BF
:101450009AEF99872091180230911902275F3F4F28
:101460003C832B838D831092E90010921902109215
:101470001802109317020093160249E050E0BE01D3
:101480006F5F7F4F80E00E94AC040E94D20479CF4E
:1014900010931702009316020E94E903DC011296D2
:1014A0000D911C910115110509F451C1D801ED915F
:1014B000FC910480F581E02DBE016B5E7F4FC80179
:1014C0000995009709F03EC1F80100851185EACF22
:1014D000F3E0FF120EC08F89882309F440C08230E8
:1014E00061F440E867E08DEC96E00E94580C8111B1
:1014F00048CF81E28093EB0047CF813029F440E868
:101500006BE081EC96E0F1CF833099F70E94E9031C
:10151000DC011296ED90FC908E010F5F1F4F680169
:10152000E114F10479F0D701ED91FC910680F78187
:10153000E02DB801C7010995080F111DF701E084DE
:10154000F184EECFD8011C92F60101900020E9F75A
:101550003197BF016C197D0940E0C601C6CF6BEA27
:1015600076E0FB01449150E080E80E94AC0409CF92
:10157000973009F4BECF983021F481E08093F100D8
:1015800000CF993009F0FDCE837009F0B2CFEDE0C5
:10159000F1E081E031E096E32191222371F0809324
:1015A000E9003093EB00DF0111972C912093EC00C0
:1015B0009093ED008F5F873079F78EE78093EA0094
:1015C0001092EA008F8980932B02DBCE8B8D9C8D4D
:1015D0001092E900109219021092180290931702CB
:1015E00080931602898D811192C08E899D89913ACE
:1015F00049F4813209F07DCF47E050E064E071E0CA
:1016000080E0B3CF913209F074CF833269F48F89CF
:10161000988DB0E0A0E08093000190930101A09329
:101620000201B0930301ADCE803269F48091E800ED
:1016300082FFFCCF67E084E091E00E9403058BEF1E
:101640008093E8009ECE823209F09BCE8F898093F2
:101650000B01EEEFFFE7859194918B3F9C4D51F18B
:10166000E0E0F8E08091040190910501A09106016D
:10167000B0910701803B9440A105B105F1F4809140
:101680000B0180FD1AC0EE3F8AE0F80789F587E775
:1016900097E7918380838091600080931A0288E1AC
:1016A0009BE00FB6F894A895809360000FBE9093CE
:1016B000600067CEEEEFFAE0D5CF80819181873769
:1016C000974709F05ECEA89580916000886180936D
:1016D000600080911A0280936000EE3F2AE0F207DA
:1016E00089F08091FE0A9091FF0A9183808349CE10
:1016F000808191818737980751F29093FF0A8093F8
:10170000FE0AC5CF1092FF0A1092FE0A3ACE0E943E
:10171000E903DC0112960D911C910115110509F4E4
:10172000E8CED801ED91FC910190F081E02DBE0151
:101730006B5E7F4FC8010995811123CEF8010085AA
:101740001185EBCF181619060CF41BCED2CEF1E0A2
:10175000FF12BECE6FEA76E004CF1F920F920FB653
:101760000F9211242F933F938F939F93AF93BF9327
:101770008091650190916601A0916701B091680127
:101780003091640123E0230F2D3758F50196A11DF8
:10179000B11D209364018093650190936601A0932D
:1017A0006701B09368018091690190916A01A091ED
:1017B0006B01B0916C010196A11DB11D809369016F
:1017C00090936A01A0936B01B0936C01BF91AF91AC
:1017D0009F918F913F912F910F900FBE0F901F906F
:1017E000189526E8230F0296A11DB11DD2CF1F9296
:1017F0000F920FB60F9211242F933F934F935F9345
:101800006F937F938F939F93AF93BF93EF93FF93C8
:101810008091600190916101A0916201B09163019A
:10182000892B8A2B8B2B09F440C080915F01811199
:101830000BC088B190E4892788B980915E01882324
:1018400019F088B1805888B9809160019091610148
:10185000A0916201B0916301181619061A061B06C1
:101860009CF48091600190916101A0916201B0911E
:1018700063010197A109B10980936001909361010F
:10188000A0936201B0936301FF91EF91BF91AF917B
:101890009F918F917F916F915F914F913F912F9188
:1018A0000F900FBE0F901F9018950E944106ECCF2D
:1018B000EF92FF920F931F93CF93DF93F82E192F80
:1018C000E62E042F81E0860F880F0E947E0483E0BD
:1018D0000E947E04CF2DD12FEC0EFD2EF11CCE15D3
:1018E000DF05B9F007FF13C0FE0184910E947E045A
:1018F000182F80E00E947E04812321968111EFCF72
:10190000DF91CF911F910F91FF90EF900895888103
:10191000EDCF81E0F5CFECE2F6E01382128288EEA3
:1019200093E0A0E0B0E084839583A683B78387E14A
:1019300091E0918380838FEF9FEF95878487ECE818
:10194000F6E01382128289E291E09183808386E936
:1019500093E090938B0680938A0680E090E89093C2
:1019600089068093880646983E9A47983F9A08953C
:10197000789484B5826084BD84B5816084BD85B56A
:10198000826085BD85B5816085BD80916E00816076
:1019900080936E001092810080918100826080931C
:1019A000810080918100816080938100809180001E
:1019B000816080938000809191008260809391008B
:1019C000809191008160809391008091900081606E
:1019D000809390008091C10084608093C1008091C9
:1019E000C10082608093C1008091C10081608093BA
:1019F000C1008091C30081608093C3008091C000CA
:101A000082608093C0008091C20081608093C20098
:101A100080917A00846080937A0080917A0082605D
:101A200080937A0080917A00816080937A0080911F
:101A30007A00806880937A0010922B0210921B0229
:101A400010921D028091D70081608093D70080EAB8
:101A50008093D80089B5806189BD89B5826089BDD0
:101A600009B400FEFDCF61E070E080E090E00E94EC
:101A700075058091D8008F7C80618093D80080911B
:101A8000E000807F8093E0008091E1008E7E809373
:101A9000E1008DE08093E200559A209A81EC8093DA
:101AA0007C0085B1806F85B984B1877E84B984B1AB
:101AB000876E84B95E9A5F988AB1806D8AB9769A8A
:101AC0006E9881B3806F81BB899880B38D7080BB25
:101AD00080E58CBD81E08DBD85E090E00E94070728
:101AE0005F9A85E090E00E9407075E985C98ECE5BD
:101AF000F6E089E696E024912EBD00000DB407FEC5
:101B0000FDCF31968E179F07B1F75C9A81E88093DD
:101B10006400809165008160809365000E94A10748
:101B200080E80E9496078823A9F05C9885EA8EBD1C
:101B300000000DB407FEFDCF5C9A2E982F982D98CB
:101B40008091640080628093640081E083BF889507
:101B500013BEFCCF84E00E949607882309F448C096
:101B60002D9884E80E9496078823E1F00E940507DB
:101B700088EC90E00E9407072F9882E090E00E9496
:101B800057108F3F29F06FEF82E090E00E945F10C6
:101B900084EF91E00E9407072F9A84E80E9496073D
:101BA0008111FBCF84E10E9496078823E1F00E9417
:101BB000050788EC90E00E9407072E9882E090E0ED
:101BC0000E945710882329F060E082E090E00E9494
:101BD0005F1084EF91E00E9407072E9A84E10E9433
:101BE00096078111FBCF88EC90E00E940707B2CFE7
:101BF0000E94050782E090E00E940A09882309F408
:101C000079C03E9A3F9A81E080936D0181E090E037
:101C10000E940A09482F4470742E81FF13C041119D
:101C20002E98C1EFDFEF08E010E06CE6E62EF12C15
:101C300080E40E949607882309F461C02E9A2F9AA7
:101C40000E94050782E390E00E9407070E940C07AC
:101C50008111F8CF5E9AE4E1F0E082EC9FEF2591EC
:101C60003591559145912851354909F4CA01809320
:101C700072019093730159988BEA0E941005599A4A
:101C800090E0C92E90E0D92E10E000E0980140E0ED
:101C900000907201300D00907301401D599883E04F
:101CA0000E941005842F0E941005832F0E941005AA
:101CB000822F0E9410051EBC0E944A05C82F8093E7
:101CC00015020E944405FC2EE82E10921402FFEF2C
:101CD000EF16FF0609F008C1580142E0A40EB11C3E
:101CE000C53031F008F0C9C0CC2309F4E1C075015A
:101CF0008701CCCF10926D013E983F9887CF772017
:101D000029F0C430D10511F42E9A2F9881E00E9459
:101D100099039E01D7FF04C0222733272C1B3D0BBC
:101D200027703327CE01D7FD079653E09595879509
:101D30005A95E1F7D7FF05C00197F801E21BF30BB5
:101D40009F01BC017695762F662777956795645D30
:101D50007D4FB0E0A0E02801421A530A8E3FFFEF0A
:101D60009F0709F43CC048E550E0FD01EC5FF94FE6
:101D70005F014B01F0E88F0E911C8F3F9807A1F097
:101D8000F501E41BF50BE4916701C41AD50AC60EF0
:101D9000D71EF0E01F01022E01C0220C0A94EAF7C0
:101DA000F60130802328208221153105A9F0F501A4
:101DB000E41BF50BE4916701C41AD50AC80CD91CC1
:101DC000F0E01F01042C02C0359427940A94E2F736
:101DD000F6013080232820824150510971F6019686
:101DE000A85ABF4F60587F4FA03BB10509F0B6CF4E
:101DF0000E94A1078FE090E00E9407072196C93159
:101E0000D10509F015CF772011F02F9A2D9880E990
:101E100091E00E9407070E94050781E090E00E9480
:101E20000A0980FF0FCF8AE090E00E940A099FEF25
:101E3000980F9E3F08F006CF22E330E030936F0109
:101E400020936E0128E330E03093710120937001FC
:101E5000CBE0D0E0682F8CE896E00E942C07CE0102
:101E60000E940A092196C131D105A1F70E94A1075C
:101E700088EE93E00E940707E5CE780154E0E50E76
:101E8000F11CCD3009F434CFC03109F030CF8501D9
:101E90000F5F1F4FC09115028C2F0E946608C11161
:101EA00021C00E94F407750182E0E80EF11C20CFEA
:101EB000C09115028C2F0E946608C111F9CF4BE02A
:101EC00050E064E371E08CE896E00E9417050E9400
:101ED000F40710921402C114D10409F4D5CE0E9463
:101EE0000000D2CE5801D3CF84ECA82E81E0B82ECA
:101EF000F501CF01845C9140C111C4C0FC01EC53D9
:101F0000FE4F108210927401C09115028C2F0E9416
:101F10006608C111F9CF62E370E086E295E00E94A5
:101F2000E906C0917001D091710100E028E048E01D
:101F3000BE0180916E0190916F010E94B5070E94D1
:101F4000A407E09744F441E050E062E371E08CE8DC
:101F500096E00E94170581E40E9466088DE50E94C4
:101F6000660880E20E9466080E94A407F50181913C
:101F70005F010E946608F501319780818111F6CFDB
:101F800062E370E086E295E00E94E90660917001EC
:101F90007091710100E028E048E080916E0190911D
:101FA0006F010E94B5070E94A40782E40E946608A0
:101FB0008DE50E94660880E20E9466080E94A407E0
:101FC000C4E7D1E089910E946608FE0131978081C3
:101FD0008111F8CF609170017091710100E028E0EB
:101FE00048E080916E0190916F010E94B5070E94B8
:101FF000A40762E370E086E295E00E94E90662E3EE
:1020000070E080E090E00E94750562E370E080E996
:1020100091E00E94E90662E370E080E090E00E94B7
:10202000750562E370E088E592E00E94E90662E3EC
:1020300070E080E090E00E947505D0E0C0E084E0B0
:102040000E94960781112EC088E00E949607811198
:1020500029C0CF5FC93278F0D130B1F401E02AE075
:102060004AE067E370E088E790E00E94B5070E94CD
:10207000A407D0E0C0E06AE070E080E090E00E9459
:102080007505DDCFC19335CF00E02AE04AE067E374
:1020900070E088E790E00E94B5070E94A407CD2F6A
:1020A000D1E0E9CF0E94A8031092140221CEF99941
:1020B000FECF92BD81BDF89A992780B50895262F4D
:1020C000F999FECF1FBA92BD81BD20BD0FB6F8941D
:1020D000FA9AF99A0FBE01960895052E97FB1EF401
:1020E00000940E94841057FD07D00E948C1007FCBA
:1020F00003D04EF40C948410509540953095219562
:102100003F4F4F4F5F4F0895909580957095619523
:102110007F4F8F4F9F4F0895A1E21A2EAA1BBB1B22
:10212000FD010DC0AA1FBB1FEE1FFF1FA217B307A3
:10213000E407F50720F0A21BB30BE40BF50B661FB9
:10214000771F881F991F1A9469F76095709580957D
:1021500090959B01AC01BD01CF010895A29FB001F4
:10216000B39FC001A39F700D811D1124911DB29FCB
:10217000700D811D1124911D0895EE0FFF1F059014
:0A218000F491E02D0994F894FFCFCC
:10218A00FFFFFFFF00E100000000000000C18081A6
:10219A0000000000000000FD03A8051E04130464EB
:1021AA000422044004000000002C0717056308629B
:1021BA00080D0A002A47414D45204F5645522A002C
:00000001FF
